:020000040000FA
:100000000C945E000C9486000C9486000C94860080
:100010000C9486000C9486000C9486000C94860048
:100020000C9486000C9486000C9486000C94860038
:100030000C9486000C9486000C9486000C94860028
:100040000C949E020C9486000C940E030C94E8020F
:100050000C9486000C9486000C9486000C94860008
:100060000C9486000C9486000000000024002700F9
:100070002A0000000008000201000003040700003D
:10008000000000000000010204081020408001026E
:1000900004081020010204081020000000002500C0
:1000A00028002B00040404040404040402020202D5
:1000B00002020303030303034003CE0611241FBE01
:1000C000CFEFD8E0DEBFCDBF11E0A0E0B1E0E8E8BF
:1000D000F3E102C005900D92AA32B107D9F723E0EF
:1000E000AAE2B1E001C01D92A236B207E1F710E02A
:1000F000CDE5D0E004C02197FE010E948C08CC35EC
:10010000D107C9F70E9408040C94B7090C940000A9
:1001100090E0FC01EE58FF4F2491FC01EA57FF4F9D
:100120003491FC01EC55FF4FE491EE23C9F02223FA
:1001300039F0233001F1A8F4213019F1223029F1EE
:10014000F0E0EE0FFF1FE656FF4FA591B4918FB779
:10015000F894EC91611126C030953E233C938FBFFB
:1001600008952730A9F02830C9F0243049F780914C
:1001700080008F7D03C0809180008F778093800006
:10018000DFCF84B58F7784BDDBCF84B58F7DFBCF88
:100190008091B0008F778093B000D2CF8091B00073
:1001A0008F7DF9CF3E2BDACFCF93DF9390E0FC0128
:1001B000EA57FF4F24918C559F4FFC01849188236F
:1001C000D1F090E0880F991FFC01E859FF4FA591ED
:1001D000B491FC01E656FF4FC591D49161110EC058
:1001E0009FB7F8948C91E22FE0958E238C93288111
:1001F000E223E8839FBFDF91CF9108958FB7F894F2
:10020000EC91E22BEC938FBFF6CF3FB7F89480913F
:10021000ED019091EE01A091EF01B091F00126B5B2
:10022000A89B05C02F3F19F00196A11DB11D3FBF2E
:10023000BA2FA92F982F8827BC01CD01620F711DFD
:10024000811D911D42E0660F771F881F991F4A95F7
:10025000D1F70895AF92BF92CF92DF92EF92FF92C3
:100260000F931F93CF93DF936C017B018B01040FDE
:10027000151FEB015E01AE18BF08C017D10759F07A
:100280006991D601ED91FC910190F081E02DC601BC
:100290000995892B79F7C501DF91CF911F910F91B6
:1002A000FF90EF90DF90CF90BF90AF900895FC014A
:1002B000538D448D252F30E0842F90E0821B930BCB
:1002C000541710F0CF96089501970895FC01918D71
:1002D000828D981761F0A28DAE0FBF2FB11D5D9674
:1002E0008C91928D9F5F9F73928F90E008958FEF16
:1002F0009FEF0895FC01918D828D981731F0828DCA
:10030000E80FF11D858D90E008958FEF9FEF089520
:10031000FC01918D228D892F90E0805C9F4F821B84
:1003200091098F739927089581EF91E00E948801C8
:1003300021E0892B09F420E0822F089580E090E0ED
:10034000892B29F00E94940181110C9400000895DA
:10035000FC01A48DA80FB92FB11DA35ABF4F2C913A
:10036000848D90E001968F739927848FA689B78931
:100370002C93A089B1898C91837080648C93938D28
:10038000848D981306C00288F389E02D80818F7DCB
:1003900080830895EF92FF920F931F93CF93DF9383
:1003A000EC0181E0888F9B8D8C8D98131AC0E889B1
:1003B000F989808185FF15C09FB7F894EE89FF8980
:1003C0006083E889F98980818370806480839FBF1E
:1003D00081E090E0DF91CF911F910F91FF90EF901E
:1003E0000895F62E0B8D10E00F5F1F4F0F7311272E
:1003F000E02E8C8D8E110CC00FB607FCFACFE88969
:10040000F989808185FFF5CFCE010E94A801F1CF47
:10041000EB8DEC0FFD2FF11DE35AFF4FF0829FB7DC
:10042000F8940B8FEA89FB8980818062CFCFCF93CC
:10043000DF93EC01888D8823B9F0AA89BB89E8890C
:10044000F9898C9185FD03C0808186FD0DC00FB6B2
:1004500007FCF7CF8C9185FFF2CF808185FFEDCF30
:10046000CE010E94A801E9CFDF91CF9108958F922C
:100470009F92AF92BF92CF92DF92EF92FF921F9323
:10048000CF93DF93FC014A01AA24BB24C82DC32EBD
:10049000D42EE52EFF241C2DD22F8085882361F0D9
:1004A000889E40011124C92D8C9D600111241D2DB1
:1004B000829FD0011124DB2FA685E184F2849385ED
:1004C000A91322C0CB01880F991F680F791F6E0DE9
:1004D0007F1DA385A60FB72FB11DCC93A485A60FB2
:1004E000B72FB11D1C938585680F711DFB01D0834B
:1004F000DF91CF911F91FF90EF90DF90CF90BF9051
:10050000AF909F908F900895660F771F660F771FAB
:100510006E0D7F1D252F332744275527882349F04B
:1005200090E0829F7001839FF00C929FF00C112449
:100530002F2DA60FB72FB11D2C93CBCF1F920F924B
:100540000FB60F9211242F933F938F939F93AF93E6
:10055000BF938091E9019091EA01A091EB01B091E4
:10056000EC013091E80123E0230F2D3758F5019677
:10057000A11DB11D2093E8018093E9019093EA0148
:10058000A093EB01B093EC018091ED019091EE010D
:10059000A091EF01B091F0010196A11DB11D8093D2
:1005A000ED019093EE01A093EF01B093F001BF91A4
:1005B000AF919F918F913F912F910F900FBE0F9010
:1005C0001F90189526E8230F0296A11DB11DD2CFCA
:1005D0001F920F920FB60F9211242F933F934F93B8
:1005E0005F936F937F938F939F93AF93BF93EF939B
:1005F000FF9381EF91E00E94A801FF91EF91BF91DD
:10060000AF919F918F917F916F915F914F913F91AA
:100610002F910F900FBE0F901F9018951F920F9261
:100620000FB60F9211242F938F939F93EF93FF9305
:10063000E0910102F09102028081E0910702F091C5
:10064000080282FD1BC0908180910A028F5F8F7328
:1006500020910B02821741F0E0910A02F0E0EF5086
:10066000FE4F958F80930A02FF91EF919F918F919A
:100670002F910F900FBE0F901F9018958081F4CF8F
:10068000EF92FF920F931F93CF93DF931092F40199
:100690001092F30188EE93E0A0E0B0E08093F501C2
:1006A0009093F601A093F701B093F8018CE191E0EB
:1006B0009093F2018093F10185EC90E09093FE011C
:1006C0008093FD0184EC90E0909300028093FF0101
:1006D00080EC90E0909302028093010281EC90E024
:1006E000909304028093030282EC90E090930602C0
:1006F0008093050286EC90E09093080280930702B5
:1007000010920A0210920B0210920C0210920D022B
:1007100082E1E6E0F1E0AAE4B3E001900D928A956F
:10072000E1F789E090E09093490380934803909328
:1007300047038093460300E510E0109345030093C0
:10074000440386E190E00E949208EC011982188629
:100750001F86188A198A1A8A83E08E8781E08B8720
:100760001C8692E09D87888390E4E92EFF24F39411
:10077000FD82EC8280E491E00E9492089A8789874A
:10078000009709F440C0FC019701119221503040BC
:10079000E1F71B830A8386E090E09F838E83898143
:1007A000882341F061E086E00E94D40060E086E0AA
:1007B0000E948800EAEAF0E0E491F0E0EE0FFF1F0B
:1007C000E656FF4F859194919C8B8B8BECE8F0E083
:1007D000E491ED8BD0935D03C0935C03EEE8F2E00F
:1007E00084E493E02EEF3FEF33832283118A108A53
:1007F0007A968E179F07C1F7DF91CF911F910F91C6
:10080000FF90EF9008951D821C821B821A82C3CF35
:10081000CF93DF93CDB7DEB729970FB6F894DEBF3D
:100820000FBECDBF789484B5826084BD84B58160ED
:1008300084BD85B5826085BD85B5816085BD8091AB
:100840006E00816080936E00109281008091810023
:10085000826080938100809181008160809381001B
:10086000809180008160809380008091B1008460DD
:100870008093B1008091B00081608093B00080913E
:100880007A00846080937A0080917A0082608093FD
:100890007A0080917A00816080937A0080917A005A
:1008A000806880937A001092C100E0910102F0917B
:1008B000020282E08083E091FD01F091FE0110824E
:1008C000E091FF01F091000280E180831092090223
:1008D000E0910502F091060286E08083E091030238
:1008E000F0910402808180618083E0910302F091A5
:1008F0000402808188608083E0910302F091040209
:10090000808180688083E0910302F09104028081FD
:100910008F7D808300915C0310915D03D801169652
:100920008D919C9197FD08C061E00E94D40060E029
:10093000F80186810E94880081E0D80111968C938D
:1009400061E083E00E94D40061E082E00E94D40074
:1009500060E085E10E94D40061E083E00E948800AD
:100960008BE490E00197F1F760E083E00E9488005B
:100970005BE4252E312C3EE8432E32E0532E32012B
:1009800047E4B42E61E082E00E948800C101019733
:10099000F1F760E082E00E9488000AE010E0C12CDC
:1009A000D12C7601B0927C0080917A008064809393
:1009B0007A0080917A0086FDFCCF6091780070917A
:1009C0007900072E000C880B990B0E9400089B01F0
:1009D000AC01C701B6010E94EA066B017C0101501F
:1009E000110901F720E030E040E251E40E9456078F
:1009F00020E030E04AEF52E40E9456070E94C80708
:100A0000F30122813381C901860F971F918380836F
:100A1000FAE16F0E711C84E493E08615970509F0E6
:100A2000B1CF80E090E0A0E0B4E68093960290938E
:100A30009702A0939802B09399028BE490E0A4E609
:100A4000B0E08093B0029093B102A093B202B09351
:100A5000B30280E094E6A0E0B0E08093CA029093F5
:100A6000CB02A093CC02B093CD0284E690E0A0E04C
:100A7000B0E08093E4029093E502A093E602B09385
:100A8000E70280E094E1A2E3B4E18093FE02909358
:100A9000FF02A0930003B093010386E990E0A0E079
:100AA000B6E48093180390931903A0931A03B093AC
:100AB0001B0382E396E4A0E0B0E0809332039093BE
:100AC0003303A0933403B09335038091E001811187
:100AD00011C0EAE2F1E080EE91E02EEF3FEF3383C8
:100AE0002283118A108A7A968E179F07C1F781E0B8
:100AF0008093E0018AE2A82E81E0B82E94E4C92E0A
:100B000093E0D92E45012EE8E22E22E0F22ED70105
:100B10008D919C9197FD5FC0F40100811181801738
:100B2000910709F458C00817190764F580915C0310
:100B300090915D03D7012D913C91201731070CF462
:100B40004AC06FEF093011054CF4F60160857185DC
:100B500061157105A9F060FD13C0601B70E0DC0138
:100B600012962D913C916217730738F4F701208596
:100B70003185428553850E9437020F5F1F4FD6CFC4
:100B8000600FECCF80915C0390915D03D7012D91B4
:100B90003C9102171307FCF06FEF093011054CF47C
:100BA000F601608571856115710599F060FD11C0D0
:100BB000601B70E0DC0112962D913C916217730767
:100BC00028F420E030E0A9010E9437020150110909
:100BD000D9CF600FEECFBAE1EB0EF11CEAE18E0E39
:100BE000911CF2E0CF0ED11C6E147F0409F08FCF60
:100BF0008AE1F201D50101900D928A95E1F72AE18F
:100C0000420E511C8AE1A80EB11C4E145F0481F7FC
:100C100000915C0310915D03D80119968D919C9110
:100C2000892B09F473C00E940501F801C784D0889C
:100C3000E188F2886C157D058E059F0520F4678795
:100C4000708B818B928BF801C784D088E188F28801
:100C50006C197D098E099F096C32714081059105DF
:100C600010F3F894D80114968D919C9115979A835E
:100C700089831996ED91FC917F01BFEFEB1AFB0A76
:100C800080818987F80190810388F489E02DD8015B
:100C900055968C91992309F446C09081982B98879A
:100CA0009081809589238F838F818C8388E08B83CB
:100CB00038854F8169855B812C8189819A81D70133
:100CC000308367FD232F5A952083242F39F0661F28
:100CD00000C000004083000000C0F2CF58E06D91DA
:100CE00040830000019761F7D8015496FC93EE937E
:100CF000539769875B832C839A83898378940E94B6
:100D00000501F8016787708B818B928B80E090E002
:100D1000892B09F430CE0E949401882309F428CE4F
:100D20000E94000025CE9081982B98879081809515
:100D300089238F838F818E8388E08D8338854F81CF
:100D400069855D812E8189819A81D701308367FD14
:100D5000232F00C000C0208300C000C000C000C01E
:100D600000C040830000242F5A9541F0661F000008
:100D700000C000C000C000C000C0E8CF58E06D91C6
:100D800000C0408300C0019709F7D8015496FC9336
:100D9000EE93539769875D832E83AECFCF93DF9316
:100DA000C0915C03D0915D03209781F089859A857D
:100DB0000E942E098E819F8197FD03C060E00E94F2
:100DC000D400CE01DF91CF910C942E09DF91CF9109
:100DD00008955058BB27AA270E9401070C94520877
:100DE0000E94440838F00E944B0820F039F49F3FDD
:100DF00019F426F40C9441080EF4E095E7FB0C94EA
:100E00003B08E92F0E94630858F3BA17620773077B
:100E10008407950720F079F4A6F50C9485080EF464
:100E2000E0950B2EBA2FA02D0B01B90190010C01FA
:100E3000CA01A0011124FF27591B99F0593F50F412
:100E4000503E68F11A16F040A22F232F342F44276A
:100E5000585FF3CF469537952795A795F040539562
:100E6000C9F77EF41F16BA0B620B730B840BBAF032
:100E70009150A1F0FF0FBB1F661F771F881FC2F79D
:100E80000EC0BA0F621F731F841F48F487957795B1
:100E90006795B795F7959E3F08F0B0CF9395880F6B
:100EA00008F09927EE0F9795879508950E946A0795
:100EB0000C9452080E944B0858F00E94440840F0DD
:100EC00029F45F3F29F00C943B0851110C948608DB
:100ED0000C9441080E94630868F39923B1F35523E9
:100EE00091F3951B550BBB27AA276217730784073D
:100EF00038F09F5F5F4F220F331F441FAA1FA9F3D3
:100F000035D00E2E3AF0E0E832D091505040E695C0
:100F1000001CCAF72BD0FE2F29D0660F771F881F21
:100F2000BB1F261737074807AB07B0E809F0BB0B14
:100F3000802DBF01FF2793585F4F3AF09E3F510528
:100F400078F00C943B080C9486085F3FE4F3983EDD
:100F5000D4F3869577956795B795F7959F5FC9F711
:100F6000880F911D9695879597F90895E1E0660F92
:100F7000771F881FBB1F621773078407BA0720F00B
:100F8000621B730B840BBA0BEE1F88F7E095089574
:100F90000E94CF076894B1110C94860808950E94AE
:100FA0006B0888F09F5798F0B92F9927B751B0F088
:100FB000E1F0660F771F881F991F1AF0BA95C9F7DD
:100FC00014C0B13091F00E948508B1E008950C94EE
:100FD0008508672F782F8827B85F39F0B93FCCF3A1
:100FE000869577956795B395D9F73EF4909580955A
:100FF000709561957F4F8F4F9F4F0895E89409C07A
:1010000097FB3EF490958095709561957F4F8F4F3B
:101010009F4F9923A9F0F92F96E9BB279395F69551
:10102000879577956795B795F111F8CFFAF4BB0FCF
:1010300011F460FF1BC06F5F7F4F8F4F9F4F16C033
:10104000882311F096E911C0772321F09EE8872FBD
:10105000762F05C0662371F096E8862F70E060E079
:101060002AF09A95660F771F881FDAF7880F9695F2
:10107000879597F9089597F99F6780E870E060E099
:1010800008959FEF80EC089500240A941616170621
:1010900018060906089500240A9412161306140669
:1010A00005060895092E0394000C11F4882352F0CC
:1010B000BB0F40F4BF2B11F460FF04C06F5F7F4F84
:1010C0008F4F9F4F089557FD9058440F551F59F06B
:1010D0005F3F71F04795880F97FB991F61F09F3F25
:1010E00079F087950895121613061406551FF2CF4E
:1010F0004695F1DF08C0161617061806991FF1CF9E
:1011000086957105610508940895E894BB276627C4
:101110007727CB0197F90895EE0FFF1F0590F49103
:10112000E02D09940F931F93CF93DF9382309105A5
:1011300010F482E090E0E0916003F091610330E010
:1011400020E0B0E0A0E0309799F42115310509F4D2
:101150004AC0281B390B24303105D8F58A819B8180
:101160006115710589F1FB0193838283FE0111C032
:10117000408151810281138148175907E0F04817D7
:10118000590799F4109761F012960C9312971396E1
:101190001C933296CF01DF91CF911F910F9108954B
:1011A0000093600310936103F4CF2115310551F0D2
:1011B0004217530738F0A901DB019A01BD01DF0195
:1011C000F801C1CFEF01F9CF9093610380936003E1
:1011D000CDCFFE01E20FF31F81939193225031098D
:1011E00039832883D7CF20915E0330915F03232B6F
:1011F00041F4209102013091030130935F03209369
:101200005E0320910001309101012115310541F467
:101210002DB73EB74091040150910501241B350BB9
:10122000E0915E03F0915F03E217F307A0F42E1B39
:101230003F0B2817390778F0AC014E5F5F4F24173A
:10124000350748F04E0F5F1F50935F0340935E03D6
:10125000819391939FCFF0E0E0E09CCFCF93DF9319
:101260000097E9F0FC01329713821282A09160038B
:10127000B0916103ED0130E020E01097A1F42081EE
:101280003181820F931F20915E0330915F032817F5
:10129000390709F061C0F0935F03E0935E03DF91CB
:1012A000CF910895EA01CE17DF07E8F54A815B8107
:1012B0009E0141155105B1F7E901FB83EA8349918C
:1012C0005991C40FD51FEC17FD0761F480819181FE
:1012D0000296840F951FE901998388838281938107
:1012E0009B838A83F0E0E0E012968D919C911397A6
:1012F0000097B9F52D913C911197CD010296820F7F
:10130000931F20915E0330915F032817390739F648
:10131000309751F51092610310926003B0935F0310
:10132000A0935E03BCCFD383C28340815181840FDD
:10133000951FC817D90761F44E5F5F4F8881998167
:10134000480F591F518340838A819B8193838283F5
:101350002115310509F0B0CFF0936103E0936003EC
:101360009ECFFD01DC01C0CF13821282D7CF10E0E7
:10137000CDE5D0E004C0FE010E948C082196CE3558
:10138000D107C9F7F894FFCF000062038000000086
:1013900010001100220023003400350046004700F1
:1013A00000000000CA012A015701170288016601E6
:0213B0007A01C0
:107800000C94343C0C94513C0C94513C0C94513CE1
:107810000C94513C0C94513C0C94513C0C94513CB4
:107820000C94513C0C94513C0C94513C0C94513CA4
:107830000C94513C0C94513C0C94513C0C94513C94
:107840000C94513C0C94513C0C94513C0C94513C84
:107850000C94513C0C94513C0C94513C0C94513C74
:107860000C94513C0C94513C11241FBECFEFD8E036
:10787000DEBFCDBF11E0A0E0B1E0ECE9FFE702C060
:1078800005900D92A230B107D9F712E0A2E0B1E065
:1078900001C01D92AD30B107E1F70E942D3D0C945F
:1078A000CC3F0C94003C982F959595959595959582
:1078B000905D8F708A307CF0282F295A8091C0000B
:1078C00085FFFCCF9093C6008091C00085FFFCCF60
:1078D0002093C6000895282F205DF0CF982F809127
:1078E000C00085FFFCCF9093C6000895EF92FF92F1
:1078F0000F931F93EE24FF2487018091C00087FD22
:1079000017C00894E11CF11C011D111D81E4E8164B
:1079100082E4F8068FE0080780E0180770F3E09132
:107920000401F091050109958091C00087FFE9CF1E
:107930008091C6001F910F91FF90EF9008950E94D3
:10794000763C982F8091C00085FFFCCF9093C600B5
:1079500091362CF490330CF09053892F089597555D
:10796000892F08951F930E949F3C182F0E949F3CCF
:107970001295107F810F1F9108951F93182F882350
:1079800021F00E94763C1150E1F71F9108951F935A
:10799000182F0E94763C803249F0809103018F5F5E
:1079A000809303018530C1F01F9108958091C0003C
:1079B00085FFFCCF84E18093C6008091C00085FFE5
:1079C000FCCF1093C6008091C00085FFFCCF80E102
:1079D0008093C6001F910895E0910401F091050184
:1079E00009951F9108950E94763C803241F0809164
:1079F00003018F5F80930301853081F008958091AA
:107A0000C00085FFFCCF84E18093C6008091C00058
:107A100085FFFCCF80E18093C6000895E0910401CA
:107A2000F09105010995089540E951E08823A1F0FE
:107A30002D9A28EE33E0FA013197F1F721503040CA
:107A4000D1F72D9828EE33E0FA013197F1F7215064
:107A50003040D1F7815061F708953F924F925F9285
:107A60006F927F928F929F92AF92BF92CF92DF924E
:107A7000EF92FF920F931F93CF93DF93000080E16B
:107A80008093C4001092C50088E18093C10086E015
:107A90008093C2005098589A259A81E00E94143D24
:107AA00024E1F22E9EE1E92E85E9D82E0FE0C02ECA
:107AB00010E1B12EAA24A394B1E49B2EA6E58A2E50
:107AC000F2E57F2EE0E26E2E79E4572E63E5462E36
:107AD00050E5352E0E94763C8033B1F18133B9F107
:107AE000803409F46FC0813409F476C0823409F41B
:107AF00085C0853409F488C0803531F1823521F1A3
:107B0000813511F1853509F485C0863509F48DC0BC
:107B1000843609F496C0843709F403C1853709F423
:107B200072C1863709F466C0809103018F5F80932C
:107B30000301853079F6E0910401F0910501099582
:107B40000E94763C803351F60E94F33CC3CF0E94E2
:107B5000763C803249F78091C00085FFFCCFF092DF
:107B6000C6008091C00085FFFCCF9092C600809136
:107B7000C00085FFFCCF8092C6008091C00085FFC9
:107B8000FCCF7092C6008091C00085FFFCCF609250
:107B9000C6008091C00085FFFCCF5092C600809146
:107BA000C00085FFFCCF4092C6008091C00085FFD9
:107BB000FCCF3092C6008091C00085FFFCCFB09210
:107BC000C60088CF0E94763C863808F4BDCF0E945C
:107BD000763C0E94F33C7ECF0E94763C803809F4CC
:107BE0009CC0813809F40BC1823809F43CC1883942
:107BF00009F48FC080E00E94C73C6CCF84E10E94F2
:107C0000BD3C0E94F33C66CF85E00E94BD3C0E94D3
:107C1000F33C60CF0E94763C809306010E94763C44
:107C2000809307010E94F33C55CF0E94763C80333D
:107C300009F41DC183E00E94BD3C80E00E94C73C66
:107C400049CF0E94763C809309020E94763C809343
:107C5000080280910C028E7F80930C020E94763C79
:107C6000853409F415C18091080290910902892B8D
:107C700089F000E010E00E94763CF801E85FFE4FDA
:107C800080830F5F1F4F80910802909109020817AF
:107C9000190788F30E94763C803209F045CF809125
:107CA0000C0280FF01C16091060170910701660F0F
:107CB000771F7093070160930601A0910802B091AD
:107CC00009021097C9F0E8E0F1E09B01AD014E0F09
:107CD0005F1FF999FECF32BD21BD819180BDFA9A17
:107CE000F99A2F5F3F4FE417F50799F76A0F7B1F4B
:107CF00070930701609306018091C00085FFFCCF5F
:107D0000F092C6008091C00085FFFCCFB092C60003
:107D1000E1CE83E00E94C73CDDCE82E00E94C73CFA
:107D2000D9CE0E94763C809309020E94763C8093D3
:107D300008028091060190910701880F991F909386
:107D40000701809306010E94763C853409F4A6C0A1
:107D500080910C028E7F80930C020E94763C8032D0
:107D600009F0B8CE8091C00085FFFCCFF092C6002C
:107D7000609108027091090261157105B9F140E046
:107D800050E080910C02A82FA170B82FB27011C0E2
:107D9000BB2309F45CC0E0910601F0910701319624
:107DA000F0930701E09306014F5F5F4F46175707B7
:107DB000E8F4AA2369F3F999FECF209106013091E6
:107DC000070132BD21BDF89A90B58091C00085FFB2
:107DD000FCCF9093C6002F5F3F4F30930701209355
:107DE00006014F5F5F4F4617570718F38091C00099
:107DF00085FDE5CE8091C00085FFF8CFE0CE81E023
:107E00000E94C73C67CE0E94763C803209F08CCE3F
:107E10008091C00085FFFCCFF092C6008091C00029
:107E200085FFFCCFE092C6008091C00085FFFCCFAB
:107E3000D092C6008091C00085FFFCCFC092C600E2
:107E40008091C00085FFFCCFB092C60043CEE09188
:107E50000601F091070194918091C00085FFFCCF4D
:107E60009093C6009CCF80E10E94C73C33CE0E9415
:107E7000763C0E94763C182F0E94763C112309F430
:107E800083C0113009F484C08FE00E94C73C22CE29
:107E900080910C02816080930C02E5CE80910C02EF
:107EA000816080930C0259CF809107018823880F4D
:107EB000880B8A2180930B02809106019091070123
:107EC000880F991F90930701809306018091080203
:107ED00080FF09C080910802909109020196909359
:107EE000090280930802F894F999FECF1127E091D6
:107EF0000601F0910701C8E0D1E08091080290915D
:107F00000902103091F40091570001700130D9F34B
:107F100003E000935700E89500915700017001308D
:107F2000D9F301E100935700E89509901990009169
:107F3000570001700130D9F301E000935700E89534
:107F40001395103498F011270091570001700130FB
:107F5000D9F305E000935700E895009157000170B0
:107F60000130D9F301E100935700E895329602976A
:107F700009F0C7CF103011F00296E5CF112480919F
:107F8000C00085FFB9CEBCCE8EE10E94C73CA2CD19
:0E7F900085E90E94C73C9ECDF894FFCF80008B
:00000001FF
